:100000000C9463000C948B000C948B000C948B006C
:100010000C948B000C948B000C948B000C948B0034
:100020000C948B000C948B000C948B000C948B0024
:100030000C948B000C948B000C948B000C948B0014
:100040000C94C8050C948B000C9438060C94120682
:100050000C948B000C948B000C948B000C948B00F4
:100060000C948B000C948B000000000024002700EF
:100070002A0000000000250028002B0000000000DE
:1000800023002600290004040404040404040202DA
:100090000202020203030303030301020408102007
:1000A0004080010204081020010204081020000012
:1000B0000008000201000003040700000000000027
:1000C00000006A06890A11241FBECFEFD8E0DEBF08
:1000D000CDBF11E0A0E0B1E0E2E2FCE102C005909A
:1000E0000D92AE3AB107D9F722E0AEEAB1E001C015
:1000F0001D92AC3EB207E1F710E0C2E6D0E004C0CA
:100100002197FE010E940C0CC136D107C9F70E944D
:1001100057070C94040E0C94000096E0899FD001C0
:100120001124AF59BD4F90967C936E935F9791E0E9
:1001300091969C939197E091CE02F091CF0290918D
:10014000CD02992339F0309751F0811108C0809188
:100150007D020994309719F05C968C91FACF08953E
:10016000CF92DF92EF92FF920F931F9396E0899FB9
:10017000F0011124EF59FD4F11A2278D30A121303C
:10018000310551F178F02230310509F451C02330A6
:10019000310509F452C01F910F91FF90EF90DF904D
:1001A000CF9008956623B9F361E070E00E948D005E
:1001B0002FB7F8948091BA019091BB01A091BC0136
:1001C000B091BD012FBF8093B9029093BA02A09362
:1001D000BB02B093BC02DFCF9FB7F894C090BA01C6
:1001E000D090BB01E090BC01F090BD019FBF009199
:1001F000B9021091BA022091BB023091BC02C01A20
:10020000D10AE20AF30A0091CB021091CC0230E04D
:1002100020E00C151D052E053F0550F462E070E04E
:100220001F910F91FF90EF90DF90CF900C948D0075
:100230006111B1CF63E070E0F3CF70E060E0F0CF28
:10024000833081F028F4813099F08230A9F008954C
:100250008730A9F08830C9F08430B1F480918000F3
:100260008F7D03C0809180008F77809380000895F8
:1002700084B58F7784BD089584B58F7DFBCF809141
:10028000B0008F778093B00008958091B0008F7D8B
:10029000F9CFCF93DF93282F30E0F901E255FF4FDC
:1002A0008491F901E656FF4FD491F901EA57FF4FC7
:1002B000C491CC23A1F081110E942001EC2FF0E029
:1002C000EE0FFF1FE458FF4FA591B491EC91ED2381
:1002D00081E090E009F480E0DF91CF91089580E023
:1002E00090E0FACF1F93CF93DF93282F30E0F901EE
:1002F000E255FF4F8491F901E656FF4FD491F90181
:10030000EA57FF4FC491CC23A9F0162F81110E9408
:100310002001EC2FF0E0EE0FFF1FEE58FF4FA591EC
:10032000B4918FB7F894EC91111108C0D095DE23E9
:10033000DC938FBFDF91CF911F910895DE2BF8CF13
:10034000CF93DF9390E0FC01E656FF4F24918A574C
:100350009F4FFC0184918823C9F090E0880F991F7A
:10036000FC01E859FF4FA591B491FC01EE58FF4FF5
:10037000C591D49161110DC09FB7F8948C912095CF
:1003800082238C938881282328839FBFDF91CF917C
:100390000895623051F49FB7F8943C91822F809574
:1003A00083238C93E8812E2BEFCF8FB7F894EC91B9
:1003B0002E2B2C938FBFEACF3FB7F8948091B601D4
:1003C0009091B701A091B801B091B90126B5A89B51
:1003D00005C02F3F19F00196A11DB11D3FBFBA2FD7
:1003E000A92F982F8827BC01CD01620F711D811D97
:1003F000911D42E0660F771F881F991F4A95D1F71C
:1004000008958F929F92AF92BF92CF92DF92EF9218
:10041000FF924B015C010E94DC016B017C010E9498
:10042000DC016C197D098E099F09683E73408105C6
:100430009105A8F321E0821A9108A108B10888EE7D
:10044000C80E83E0D81EE11CF11C81149104A104A4
:10045000B10429F7FF90EF90DF90CF90BF90AF905D
:100460009F908F900895862F642F0C94A001862F63
:10047000642F0C947201862F0C944901AF92BF92A5
:10048000CF92DF92EF92FF920F931F93CF93DF9360
:100490006C017B018B01040F151FEB015E01AE188F
:1004A000BF08C017D10759F06991D601ED91FC91B1
:1004B0000190F081E02DC6010995892B79F7C501DE
:1004C000DF91CF911F910F91FF90EF90DF90CF9030
:1004D000BF90AF900895FC01538D448D252F30E0DF
:1004E000842F90E0821B930B541710F0CF96089541
:1004F00001970895FC01918D828D981761F0A28D6E
:10050000AE0FBF2FB11D5D968C91928D9F5F9F7333
:10051000928F90E008958FEF9FEF0895FC01918DE9
:10052000828D981731F0828DE80FF11D858D90E056
:1005300008958FEF9FEF0895FC01918D228D892FF3
:1005400090E0805C9F4F821B91098F7399270895DB
:100550008EEB91E00E949C0221E0892B09F420E0BF
:10056000822F089580E090E0892B29F00E94A80254
:1005700081110C9400000895FC01A48DA80FB92FDF
:10058000B11DA35ABF4F2C91848D90E001968F73BB
:100590009927848FA689B7892C93A089B1898C91DA
:1005A000837080648C93938D848D981306C0028829
:1005B000F389E02D80818F7D80830895EF92FF92F3
:1005C0000F931F93CF93DF93EC0181E0888F9B8D76
:1005D0008C8D98131AC0E889F989808185FF15C030
:1005E0009FB7F894EE89FF896083E889F989808153
:1005F0008370806480839FBF81E090E0DF91CF9122
:100600001F910F91FF90EF900895F62E0B8D10E043
:100610000F5F1F4F0F731127E02E8C8D8E110CC0B2
:100620000FB607FCFACFE889F989808185FFF5CFFD
:10063000CE010E94BC02F1CFEB8DEC0FFD2FF11D1E
:10064000E35AFF4FF0829FB7F8940B8FEA89FB893A
:1006500080818062CFCFCF93DF93EC01888D882398
:10066000B9F0AA89BB89E889F9898C9185FD03C015
:10067000808186FD0DC00FB607FCF7CF8C9185FFFA
:10068000F2CF808185FFEDCFCE010E94BC02E9CF81
:10069000DF91CF910895089590E080E00895CF9381
:1006A000DF93EC0160E08E810E94720161E08E8137
:1006B0000E94720160E08E810E9472018BE891E0DD
:1006C0000197F1F7DF91CF910895CF92DF92EF92EA
:1006D000FF920F931F93CF93DF936C017C0187E010
:1006E000E80EF11CD0E0C0E0062F10E0B8010C2E9F
:1006F00002C0759567950A94E2F76170F7018191E0
:100700007F010E9472012196C430D10579F7C6019C
:10071000DF91CF911F910F91FF90EF90DF90CF90DD
:100720000C944F03CF92DF92EF92FF920F931F939F
:10073000CF93DF93EC01F62E642F8C810E9472011F
:100740008D818F3F19F060E00E9472010F2D10E043
:100750008F8584FF25C06E0187E0C80ED11CF12C67
:10076000E12CB8010E2C02C0759567950A94E2F74A
:100770006170F60181916F010E947201FFEFEF1A23
:10078000FF0A88E0E816F10461F7CE01DF91CF910E
:100790001F910F91FF90EF90DF90CF900C944F033B
:1007A000B80184E0759567958A95E1F7CE010E94BE
:1007B00065036F2DCE01DF91CF911F910F91FF90B7
:1007C000EF90DF90CF900C94650340E0682F80EDB0
:1007D00092E00C94920381E00E94E5038BE39FE199
:1007E0000197F1F70895CF93DF93823029F4909128
:1007F000DF0298609093DF028093E3021092E4029C
:1008000080E48093E50280E18093E60280E58093B6
:10081000E70261E08091D4020E94A0018091D5029C
:100820008F3F19F061E00E94A00161E08091D60243
:100830000E94A001C0EDD2E09E01205D3240809177
:10084000DF0284FD0BC084E090E021962817390771
:1008500044F461E08E810E94A001EECF88E090E038
:10086000F4CF8BE39DE00197F1F760E08091D40233
:100870000E94720160E08091D6020E947201809114
:10088000D5028F3F19F060E00E9472018091DF0273
:1008900084FD34C063E080ED92E00E946503CBE408
:1008A000D6E4CE010197F1F763E080ED92E00E947B
:1008B00065032197F1F763E080ED92E00E94650304
:1008C00083E592E00197F1F762E080ED92E00E940B
:1008D00065038091DF0280620E94E50384E08093DB
:1008E000E0028CE00E94E5030E94EB0382E080932B
:1008F000E10286E0DF91CF910C94E50380620E94D3
:10090000E5038BE496E40197F1F78091DF028062C2
:100910000E94E50383E592E00197F1F78091DF0201
:1009200080620E94E503D5CFE091E302E23040F41B
:10093000E150F0E0E053FD4F848980680C94E503BA
:10094000E1E0F7CF41E00E94920381E090E008955A
:10095000FB0101900020E9F73197AF01461B570BCF
:10096000DC01ED91FC910280F381E02D0994BC0142
:1009700080ED92E00C94A8044F925F926F927F9268
:10098000AF92BF92CF92DF92EF92FF920F931F939D
:10099000CF93DF93CDB7DEB7A1970FB6F894DEBF44
:1009A0000FBECDBF5C016A017B01F7FE47C0DC01D1
:1009B000ED91FC910190F081E02D6DE209958C01A3
:1009C00022273327A9012C193D094E095F0919A2D5
:1009D000FE01B1967F019AE0492E512C612C712CB9
:1009E000CA01B901A30192010E94DB0B605DD7012E
:1009F0006E937D01211531054105510589F790E080
:100A000080E0109721F0BD01C5010E94A804800F6D
:100A1000911FA1960FB6F894DEBF0FBECDBFDF9138
:100A2000CF911F910F91FF90EF90DF90CF90BF90EB
:100A3000AF907F906F905F904F900895AB019601BB
:100A400019A28E010F5D1F4F8AE0C82ED12CE12C18
:100A5000F12CCA01B901A70196010E94DB0B605D70
:100A6000F80162938F01211531054105510589F780
:100A700090E080E0309769F2BF01C5010E94A804B0
:100A8000C8CF80915B0290915C02009711F00C94AA
:100A9000360B60E070E0CB0108950F931F93CF9366
:100AA000DF93EC0188819981009759F02A813B817D
:100AB0002617370730F081E0DF91CF911F910F911A
:100AC00008958B016F5F7F4F0E94370D009759F09B
:100AD000998388831B830A832C813D81232B59F7BB
:100AE000FC011082E8CF80E0E7CFEF92FF920F93F6
:100AF0001F93CF93DF93EC017B01FB01019000205A
:100B0000E9F731978F01061B170BB8010E944D05BD
:100B100028813981811113C02115310519F0C901CE
:100B20000E94AE0C198218821D821C821B821A82BE
:100B3000DF91CF911F910F91FF90EF9008951D834A
:100B40000C83B701C901DF91CF911F910F91FF90E5
:100B5000EF900C94FD0D0E94EB0385E491E00E9460
:100B6000B7040E94DE0A23E630E040E050E00E9435
:100B7000720B7093B1016093B00168E671E08BE590
:100B800092E00E9475051092AF011092AE01089597
:100B90001F920F920FB60F9211242F933F938F93B2
:100BA0009F93AF93BF938091BA019091BB01A091A5
:100BB000BC01B091BD013091B50123E0230F2D3769
:100BC00058F50196A11DB11D2093B5018093BA017E
:100BD0009093BB01A093BC01B093BD018091B6017D
:100BE0009091B701A091B801B091B9010196A11DF2
:100BF000B11D8093B6019093B701A093B801B09353
:100C0000B901BF91AF919F918F913F912F910F901B
:100C10000FBE0F901F90189526E8230F0296A11D76
:100C2000B11DD2CF1F920F920FB60F9211242F93A6
:100C30003F934F935F936F937F938F939F93AF9364
:100C4000BF93EF93FF938EEB91E00E94BC02FF9164
:100C5000EF91BF91AF919F918F917F916F915F9134
:100C60004F913F912F910F900FBE0F901F901895AD
:100C70001F920F920FB60F9211242F938F939F9371
:100C8000EF93FF93E091CE01F091CF018081E0914D
:100C9000D401F091D50182FD1BC090818091D701D4
:100CA0008F5F8F732091D801821741F0E091D701B7
:100CB000F0E0E254FE4F958F8093D701FF91EF91C2
:100CC0009F918F912F910F900FBE0F901F901895AD
:100CD0008081F4CF1092C1011092C00188EE93E0A0
:100CE000A0E0B0E08093C2019093C301A093C4013F
:100CF000B093C50181E291E09093BF018093BE0162
:100D000085EC90E09093CB018093CA0184EC90E055
:100D10009093CD018093CC0180EC90E09093CF0133
:100D20008093CE0181EC90E09093D1018093D0012B
:100D300082EC90E09093D3018093D20186EC90E016
:100D40009093D5018093D4011092D7011092D801CD
:100D50001092D9011092DA011092D3021092D202AD
:100D60008DE391E09093D1028093D0028CE0809348
:100D7000D4028FEF8093D5028BE08093D60285E07A
:100D80008093D70284E08093D80283E08093D902D5
:100D900082E08093DA021092DB021092DC02109261
:100DA000DD021092DE021092DF0281E00E94F30366
:100DB000109263021092670210926602109268020B
:100DC00083E391E09093620280936102EDE7F2E0A9
:100DD0001082148213821582369682E0E93BF8076E
:100DE000B9F783E091E09093C4028093C30280E05E
:100DF00091E09093C6028093C50284E08093C7027D
:100E000083E08093C80287E091E09093C2028093D0
:100E1000C1028AE090E09093CA028093C90284EFF5
:100E200091E09093CC028093CB021092CF0210926B
:100E3000CE021092BD021092BE021092BF0210921A
:100E4000C0021092CD0210925C0210925B021092CE
:100E50005E0210925D021092600210925F0270E0DA
:100E600060E08BE592E00E944D0520915B0230919D
:100E70005C02811113C02115310519F0C9010E94CE
:100E8000AE0C10925C0210925B0210926002109203
:100E90005F0210925E0210925D020895109260024D
:100EA00010925F0268E671E0C9010C94FD0DCF93CA
:100EB000DF93CDB7DEB728970FB6F894DEBF0FBE2D
:100EC000CDBF789484B5826084BD84B5816084BDD3
:100ED00085B5826085BD85B5816085BD80916E00D8
:100EE000816080936E001092810080918100826009
:100EF0008093810080918100816080938100809146
:100F000080008160809380008091B1008460809334
:100F1000B1008091B00081608093B00080917A0030
:100F2000846080937A0080917A00826080937A0056
:100F300080917A00816080937A0080917A00806845
:100F400080937A001092C100E091CE01F091CF0120
:100F500082E08083E091CA01F091CB011082E091A0
:100F6000CC01F091CD018FEC80831092D601E091FD
:100F7000D201F091D30186E08083E091D001F0911D
:100F8000D101808180618083E091D001F091D10115
:100F9000808188608083E091D001F091D1018081CF
:100FA00080688083E091D001F091D10180818F7DB4
:100FB000808382E00E94F30361E087E00E94A00149
:100FC00061E086E00E94A00185E491E00E94B70400
:100FD00080E480937C0080917A00806480937A0022
:100FE00080917A0086FDFCCF609178007091790045
:100FF000072E000C880B990B611571058105910571
:1010000011F00E942D0B0E94DE0A24E630E040E041
:1010100050E00E94720B7093B1016093B001412CBB
:10102000512C3201439440E0A42E40E0B42E51E014
:101030005093CD028FB7F8944091BA015091BB0103
:101040006091BC017091BD018FBF8091BD029091F4
:10105000BE02A091BF02B091C002481B590B6A0B9F
:101060007B0B8091C9029091CA02B0E0A0E0841786
:101070009507A607B70708F08EC110E08091C70258
:10108000181760F4E091C302F091C402E10FF11D62
:1010900062E080810E94A0011F5FF0CF312C80911F
:1010A000C802381608F061C0E32CF12CE091C502AB
:1010B000F091C602EE0DFF1D61E080810E94A0014B
:1010C000E091C502F091C602EE0DFF1D60E0808147
:1010D0000E947201D301C201032C04C0880F991F22
:1010E000AA1FBB1F0A94D2F74C016C01C094D09484
:1010F000212C8091C702281608F5022D10E0E091FE
:10110000C302F091C402E00FF11F80810E944901E7
:101110000C5F1F4F000F111FF801EF59FD4F892B76
:1011200041F4808191818829992991838083239436
:10113000E0CF808191818C219D21F7CFE091C50284
:10114000F091C602EE0DFF1D61E080810E947201E8
:101150008091C5029091C602E80EF91E60E0F70189
:1011600080810E94A00133949ACF01E612E0F80139
:10117000878D90A1892B31F4148E8FEF9FEF968F7E
:10118000858F11A2369692E0ED39F90789F7D12CB7
:101190008091C702D81608F053C0C12CED2CF12C59
:1011A000EE0CFF1CF701E759FD4F7F012091C802AB
:1011B000C21608F043C0F701608171810C2C02C097
:1011C000769567950A94E2F7D29E900111242C0D32
:1011D000311DE1E6F2E080E0458D568D241735079C
:1011E00009F495C18F5F36968A30B1F760FF24C04D
:1011F000E1E6F2E090E080E0448D411118C0E0911A
:10120000C102F091C202E20FF31F408156E0589FE5
:10121000F001599FF00D1124EF59FD4F448F368F87
:10122000258F10A2178E61E00E94B00005C00196C4
:1012300036968A30910501F7C394B8CFD394A8CFDE
:1012400080E0F80191A19111892F0A5F1F4FF2E010
:101250000D391F07B1F79FB7F8944091BA0150912B
:10126000BB016091BC017091BD019FBF4093BD0265
:101270005093BE026093BF027093C002882309F4AA
:101280008AC080918202882309F485C080918002FF
:1012900090918102019709F07EC080917D02809338
:1012A000B40181117DC08091AE019091AF010A9788
:1012B000E1F40E94EB0384E591E00E94B7040E94F0
:1012C00094048EE591E00E94B70461E086E00E94FC
:1012D000720168EB7BE080E090E00E94010260E038
:1012E00086E00E9472010E94AB058091B4018332B6
:1012F00041F08A3231F08091B2019091B3010297AE
:10130000F1F54091B0015091B101052E000C660B32
:10131000770B8EEB91E00E94BC0466E671E08EEBE9
:1013200091E00E94A8040E944105AB01BC0180919C
:10133000B0019091B101092E000CAA0BBB0B48170C
:1013400059076A077B0709F073C00E94EB0389E61F
:1013500091E00E94B70461E087E00E94720168EBAF
:101360007BE080E090E00E94010260E087E00E9464
:1013700072010E94AB051092B3011092B201A11448
:10138000B10409F454CE0E94A802882309F44FCE78
:101390000E9400004CCE1092CD021092B40183CF77
:1013A0001A8219821C821B821E821D828F831886DC
:1013B000BE01695F7F4FCE0101960E947505E980ED
:1013C000FA80E114F10419F10D811E810115110556
:1013D000F1F080915F0290916002080F191FB8012F
:1013E0008BE592E00E944D05882389F020915B02F5
:1013F00030915C0280915F0290916002B701820F90
:10140000931F0E94FD0D1093600200935F02809174
:10141000B2019091B30101969093B3018093B20110
:1014200089819A81009709F43ECF0E94AE0C3BCF90
:1014300084179507A607B707C4F50E94EB0384E756
:1014400091E00E94B7040E94940483E891E00E9416
:10145000B7040E944105AB01BC0180ED92E00E94FF
:10146000BC0468E671E08BE592E00E94750580910E
:10147000AE019091AF0101969093AF018093AE01C0
:1014800061E086E00E94720160ED77E080E090E02C
:101490000E94010260E086E00E9472010E94EB035C
:1014A00085E491E00E94B70466CF481759076A07A0
:1014B0007B070CF060CF0E94EB038FE891E00E9465
:1014C000B7040E9494048EE991E00E94B7040E9440
:1014D0004105AB01BC0180ED92E00E94BC0468E6CE
:1014E00071E08BE592E00E9475058091AE019091CC
:1014F000AF0101969093AF018093AE0161E086E069
:101500000E94720168EC70E080E090E0C1CF6170F1
:101510008BCE80915B0290915C02009711F00C944D
:10152000AE0C08958F929F92AF92BF92CF92DF92AE
:10153000EF92FF92CF93DF93EC01688179818A81EA
:101540009B81611571058105910521F464E279EDB6
:101550008BE597E02DE133EF41E050E00E94720B04
:1015600049015A019B01AC01A7EAB1E40E94910B29
:101570006B017C01ACEEB4EFA50194010E949F0BBE
:10158000C60ED71EE81EF91EF7FE06C081E0C81A77
:10159000D108E10880E8F80AC882D982EA82FB8291
:1015A000C701B6019F77DF91CF91FF90EF90DF9059
:1015B000CF90BF90AF909F908F9008958F929F9201
:1015C000AF92BF92CF92DF92EF92FF9260911301A0
:1015D00070911401809115019091160161157105AA
:1015E0008105910521F464E279ED8BE597E02DE129
:1015F00033EF41E050E00E94720B49015A019B0118
:10160000AC01A7EAB1E40E94910B6B017C01ACEE46
:10161000B4EFA50194010E949F0BC60ED71EE81ED1
:10162000F91EF7FE06C081E0C81AD108E10880E87B
:10163000F80AC0921301D0921401E0921501F092C1
:101640001601C701B6019F77FF90EF90DF90CF9012
:10165000BF90AF909F908F90089560931301709307
:101660001401809315019093160108951F93FC01B6
:1016700099278827BC01E89411911032E9F31930B9
:1016800010F01E30C8F31B3251F01D3249F468943B
:1016900006C00E945D0B610F711D811D911D11918E
:1016A00010531A30B0F33EF4909580957095619583
:1016B0007F4F8F4F9F4F1F910895592F482F372FDE
:1016C000262F660F771F881F991F660F771F881FA9
:1016D000991F620F731F841F951F660F771F881F46
:1016E000991F0895052E97FB1EF400940E94890B04
:1016F00057FD07D00E94DB0B07FC03D04EF40C947F
:10170000890B50954095309521953F4F4F4F5F4F36
:10171000089590958095709561957F4F8F4F9F4F5D
:1017200008950E94FD0BA59F900DB49F900DA49F5E
:10173000800D911D11240895B7FF0C94910B0E9408
:10174000910B821B930B08952F923F924F925F92C1
:101750006F927F928F929F92AF92BF92CF92DF92C1
:10176000EF92FF920F931F93CF93DF93CDB7DEB726
:10177000CA1BDB0B0FB6F894DEBF0FBECDBF0994BA
:101780002A88398848885F846E847D848C849B8411
:10179000AA84B984C884DF80EE80FD800C811B811F
:1017A000AA81B981CE0FD11D0FB6F894DEBF0FBE4E
:1017B000CDBFED010895A1E21A2EAA1BBB1BFD01AE
:1017C0000DC0AA1FBB1FEE1FFF1FA217B307E40720
:1017D000F50720F0A21BB30BE40BF50B661F771F78
:1017E000881F991F1A9469F7609570958095909558
:1017F0009B01AC01BD01CF010895A29FB001B39F31
:10180000C001A39F700D811D1124911DB29F700D09
:10181000811D1124911D0895EE0FFF1F0590F49175
:10182000E02D09940F931F93CF93DF93823091059E
:1018300010F482E090E0E091EA02F091EB0230E0F7
:1018400020E0B0E0A0E0309799F42115310509F4CB
:101850004AC0281B390B24303105D8F58A819B8179
:101860006115710589F1FB0193838283FE0111C02B
:10187000408151810281138148175907E0F04817D0
:10188000590799F4109761F012960C9312971396DA
:101890001C933296CF01DF91CF911F910F91089544
:1018A0000093EA021093EB02F4CF2115310551F0B9
:1018B0004217530738F0A901DB019A01BD01DF018E
:1018C000F801C1CFEF01F9CF9093EB028093EA02C8
:1018D000CDCFFE01E20FF31F819391932250310986
:1018E00039832883D7CF2091E8023091E902232B56
:1018F00041F42091190130911A013093E9022093AB
:10190000E80220911701309118012115310541F4A9
:101910002DB73EB740911B0150911C01241B350B84
:10192000E091E802F091E902E217F307A0F42E1B20
:101930003F0B2817390778F0AC014E5F5F4F241733
:10194000350748F04E0F5F1F5093E9024093E802BD
:10195000819391939FCFF0E0E0E09CCFCF93DF9312
:101960000097E9F0FC01329713821282A091EA02FB
:10197000B091EB02ED0130E020E01097A1F420815E
:101980003181820F931F2091E8023091E9022817DC
:10199000390709F061C0F093E902E093E802DF91B2
:1019A000CF910895EA01CE17DF07E8F54A815B8100
:1019B0009E0141155105B1F7E901FB83EA83499185
:1019C0005991C40FD51FEC17FD0761F480819181F7
:1019D0000296840F951FE901998388838281938100
:1019E0009B838A83F0E0E0E012968D919C9113979F
:1019F0000097B9F52D913C911197CD010296820F78
:101A0000931F2091E8023091E9022817390739F62F
:101A1000309751F51092EB021092EA02B093E9026E
:101A2000A093E802BCCFD383C28340815181840F4D
:101A3000951FC817D90761F44E5F5F4F8881998160
:101A4000480F591F518340838A819B8193838283EE
:101A50002115310509F0B0CFF093EB02E093EA02D3
:101A60009ECFFD01DC01C0CF13821282D7CFB0E040
:101A7000A0E0EDE3FDE00C94A60B8C01009751F47F
:101A8000CB010E94120C8C01C801CDB7DEB7E0E19A
:101A90000C94C20BFC01E60FF71F9C012250310988
:101AA000E217F30708F49DC0D901CD91DC9111979D
:101AB000C617D70798F0C530D10530F3CE0104978B
:101AC0008617970708F3C61BD70B2297C193D193AC
:101AD0006D937C93CF010E94AE0CD6CF5B01AC1A04
:101AE000BD0A4C018C0E9D1EA091EA02B091EB0242
:101AF000512C412CF12CE12C109731F58091E8020A
:101B00009091E9028815990509F05CC046165706C0
:101B100008F058C08091170190911801009741F486
:101B20008DB79EB740911B0150911C01841B950BF2
:101B3000E817F90708F055C0F093E902E093E802CE
:101B4000F90171836083A0CF8D919C9111971296BA
:101B50006C90129713967C901397A815B90559F5B8
:101B60006C0142E0C40ED11CCA14DB0420F1AC01AC
:101B70004A195B09DA011296159780F06282738226
:101B800051834083D9016D937C93E114F10471F08A
:101B9000D7011396FC93EE93129776CF22968C0F73
:101BA0009D1FF90191838083F301EFCFF093EB0246
:101BB000E093EA0269CF4816590608F42C017D012A
:101BC000D3019ACFCB010E94120C7C01009749F0FF
:101BD000AE01B8010E94F40DC8010E94AE0C87014D
:101BE00053CF10E000E050CFFB01DC0102C00190B8
:101BF0000D9241505040D8F70895FB01DC0101904F
:101C00000D920020E1F7089510E0C2E6D0E004C094
:101C1000FE010E940C0C2196C336D107C9F7F89437
:021C2000FFCFF4
:101C22000F10110D0A09083132333435363738397D
:101C32002A3023010000000000EC028000000000B6
:101C420000DE023E026B022B039C027A028E02002D
:101C5200000000330237023B0200000000A2043EF3
:101C6200024C034B0347756573732041204E756D1B
:101C72006265720047414D45204F564552005E5FF6
:101C82005F5F5F5F5E000D0A0057696E6E657220CE
:101C92005E5F5E00546865206E756D6265722069D4
:101CA2007320004C657373205468616E3A200054AF
:101CB2006865204E756D62657220697320004772F7
:0E1CC2006561746572205468616E3A200000FE
:00000001FF
